{"abi":[{"type":"constructor","inputs":[{"name":"_uri","type":"string","internalType":"string"},{"name":"_platformAddress","type":"address","internalType":"address"},{"name":"_paymentToken","type":"address","internalType":"address"},{"name":"_monthlyDataUploader","type":"address","internalType":"address"}],"stateMutability":"nonpayable"},{"type":"function","name":"_safeFreeMint","inputs":[{"name":"to","type":"address","internalType":"address"},{"name":"tokenId","type":"uint256","internalType":"uint256"},{"name":"amountMinted","type":"uint256","internalType":"uint256"}],"outputs":[],"stateMutability":"nonpayable"},{"type":"function","name":"balanceOf","inputs":[{"name":"account","type":"address","internalType":"address"},{"name":"id","type":"uint256","internalType":"uint256"}],"outputs":[{"name":"","type":"uint256","internalType":"uint256"}],"stateMutability":"view"},{"type":"function","name":"balanceOfBatch","inputs":[{"name":"accounts","type":"address[]","internalType":"address[]"},{"name":"ids","type":"uint256[]","internalType":"uint256[]"}],"outputs":[{"name":"","type":"uint256[]","internalType":"uint256[]"}],"stateMutability":"view"},{"type":"function","name":"batchSafeFreeMint","inputs":[{"name":"requests","type":"tuple[]","internalType":"struct MangaNFT.MintRequest[]","components":[{"name":"recipient","type":"address","internalType":"address"},{"name":"tokenId","type":"uint256","internalType":"uint256"},{"name":"amountMinted","type":"uint256","internalType":"uint256"}]}],"outputs":[],"stateMutability":"nonpayable"},{"type":"function","name":"createChapter","inputs":[{"name":"mangaTitleZh","type":"string","internalType":"string"},{"name":"mangaTitleEn","type":"string","internalType":"string"},{"name":"mangaTitleJp","type":"string","internalType":"string"},{"name":"descriptionZh","type":"string","internalType":"string"},{"name":"descriptionEn","type":"string","internalType":"string"},{"name":"descriptionJp","type":"string","internalType":"string"},{"name":"maxCopies","type":"uint256","internalType":"uint256"},{"name":"uri_","type":"string","internalType":"string"},{"name":"creator_addr","type":"address","internalType":"address"}],"outputs":[{"name":"","type":"uint256","internalType":"uint256"}],"stateMutability":"nonpayable"},{"type":"function","name":"exists","inputs":[{"name":"id","type":"uint256","internalType":"uint256"}],"outputs":[{"name":"","type":"bool","internalType":"bool"}],"stateMutability":"view"},{"type":"function","name":"freeMint","inputs":[{"name":"to","type":"address","internalType":"address"},{"name":"tokenId","type":"uint256","internalType":"uint256"},{"name":"amountMinted","type":"uint256","internalType":"uint256"}],"outputs":[],"stateMutability":"nonpayable"},{"type":"function","name":"getChapterInfo","inputs":[{"name":"tokenId","type":"uint256","internalType":"uint256"}],"outputs":[{"name":"","type":"tuple","internalType":"struct MangaNFT.MangaChapter","components":[{"name":"mangaTitle","type":"tuple","internalType":"struct MangaNFT.LocalizedText","components":[{"name":"zh","type":"string","internalType":"string"},{"name":"en","type":"string","internalType":"string"},{"name":"jp","type":"string","internalType":"string"}]},{"name":"description","type":"tuple","internalType":"struct MangaNFT.LocalizedText","components":[{"name":"zh","type":"string","internalType":"string"},{"name":"en","type":"string","internalType":"string"},{"name":"jp","type":"string","internalType":"string"}]},{"name":"publishTime","type":"uint256","internalType":"uint256"},{"name":"mintTime","type":"uint256","internalType":"uint256"},{"name":"maxCopies","type":"uint256","internalType":"uint256"},{"name":"creator","type":"address","internalType":"address"},{"name":"uri","type":"string","internalType":"string"}]}],"stateMutability":"view"},{"type":"function","name":"getChapterTitle","inputs":[{"name":"tokenId","type":"uint256","internalType":"uint256"},{"name":"lang","type":"string","internalType":"string"}],"outputs":[{"name":"","type":"string","internalType":"string"}],"stateMutability":"view"},{"type":"function","name":"getCurrentHeldNFTCountByCreator","inputs":[{"name":"creator","type":"address","internalType":"address"}],"outputs":[{"name":"","type":"uint256","internalType":"uint256"}],"stateMutability":"view"},{"type":"function","name":"getCurrentHeldNFTCountByInvestor","inputs":[{"name":"investor","type":"address","internalType":"address"}],"outputs":[{"name":"","type":"uint256","internalType":"uint256"}],"stateMutability":"view"},{"type":"function","name":"getNFTOwnersWithBalance","inputs":[{"name":"tokenId","type":"uint256","internalType":"uint256"}],"outputs":[{"name":"","type":"tuple[]","internalType":"struct NFTOwner[]","components":[{"name":"owner","type":"address","internalType":"address"},{"name":"balance","type":"uint256","internalType":"uint256"}]}],"stateMutability":"view"},{"type":"function","name":"getTokenOwners","inputs":[{"name":"tokenId","type":"uint256","internalType":"uint256"}],"outputs":[{"name":"","type":"address[]","internalType":"address[]"}],"stateMutability":"view"},{"type":"function","name":"investorRegistration","inputs":[{"name":"investor","type":"address","internalType":"address"},{"name":"tokenId","type":"uint256","internalType":"uint256"}],"outputs":[],"stateMutability":"nonpayable"},{"type":"function","name":"isApprovedForAll","inputs":[{"name":"account","type":"address","internalType":"address"},{"name":"operator","type":"address","internalType":"address"}],"outputs":[{"name":"","type":"bool","internalType":"bool"}],"stateMutability":"view"},{"type":"function","name":"mangaChapters","inputs":[{"name":"","type":"uint256","internalType":"uint256"}],"outputs":[{"name":"mangaTitle","type":"tuple","internalType":"struct MangaNFT.LocalizedText","components":[{"name":"zh","type":"string","internalType":"string"},{"name":"en","type":"string","internalType":"string"},{"name":"jp","type":"string","internalType":"string"}]},{"name":"description","type":"tuple","internalType":"struct MangaNFT.LocalizedText","components":[{"name":"zh","type":"string","internalType":"string"},{"name":"en","type":"string","internalType":"string"},{"name":"jp","type":"string","internalType":"string"}]},{"name":"publishTime","type":"uint256","internalType":"uint256"},{"name":"mintTime","type":"uint256","internalType":"uint256"},{"name":"maxCopies","type":"uint256","internalType":"uint256"},{"name":"creator","type":"address","internalType":"address"},{"name":"uri","type":"string","internalType":"string"}],"stateMutability":"view"},{"type":"function","name":"mintTimeout","inputs":[],"outputs":[{"name":"","type":"uint256","internalType":"uint256"}],"stateMutability":"view"},{"type":"function","name":"monthlyDataUploader","inputs":[],"outputs":[{"name":"","type":"address","internalType":"contract IMonthlyDataUploader"}],"stateMutability":"view"},{"type":"function","name":"owner","inputs":[],"outputs":[{"name":"","type":"address","internalType":"address"}],"stateMutability":"view"},{"type":"function","name":"paymentToken","inputs":[],"outputs":[{"name":"","type":"address","internalType":"contract IERC20"}],"stateMutability":"view"},{"type":"function","name":"payments","inputs":[{"name":"","type":"address","internalType":"address"},{"name":"","type":"uint256","internalType":"uint256"}],"outputs":[{"name":"tokenId","type":"uint256","internalType":"uint256"},{"name":"timestamp","type":"uint256","internalType":"uint256"},{"name":"amount","type":"uint256","internalType":"uint256"},{"name":"minted","type":"bool","internalType":"bool"}],"stateMutability":"view"},{"type":"function","name":"platformAddress","inputs":[],"outputs":[{"name":"","type":"address","internalType":"address"}],"stateMutability":"view"},{"type":"function","name":"renounceOwnership","inputs":[],"outputs":[],"stateMutability":"nonpayable"},{"type":"function","name":"safeBatchTransferFrom","inputs":[{"name":"from","type":"address","internalType":"address"},{"name":"to","type":"address","internalType":"address"},{"name":"ids","type":"uint256[]","internalType":"uint256[]"},{"name":"values","type":"uint256[]","internalType":"uint256[]"},{"name":"data","type":"bytes","internalType":"bytes"}],"outputs":[],"stateMutability":"nonpayable"},{"type":"function","name":"safeTransferFrom","inputs":[{"name":"from","type":"address","internalType":"address"},{"name":"to","type":"address","internalType":"address"},{"name":"id","type":"uint256","internalType":"uint256"},{"name":"value","type":"uint256","internalType":"uint256"},{"name":"data","type":"bytes","internalType":"bytes"}],"outputs":[],"stateMutability":"nonpayable"},{"type":"function","name":"setApprovalForAll","inputs":[{"name":"operator","type":"address","internalType":"address"},{"name":"approved","type":"bool","internalType":"bool"}],"outputs":[],"stateMutability":"nonpayable"},{"type":"function","name":"supportsInterface","inputs":[{"name":"interfaceId","type":"bytes4","internalType":"bytes4"}],"outputs":[{"name":"","type":"bool","internalType":"bool"}],"stateMutability":"view"},{"type":"function","name":"totalSupply","inputs":[],"outputs":[{"name":"","type":"uint256","internalType":"uint256"}],"stateMutability":"view"},{"type":"function","name":"totalSupply","inputs":[{"name":"id","type":"uint256","internalType":"uint256"}],"outputs":[{"name":"","type":"uint256","internalType":"uint256"}],"stateMutability":"view"},{"type":"function","name":"transferOwnership","inputs":[{"name":"newOwner","type":"address","internalType":"address"}],"outputs":[],"stateMutability":"nonpayable"},{"type":"function","name":"updateChapterDescription","inputs":[{"name":"tokenId","type":"uint256","internalType":"uint256"},{"name":"language","type":"string","internalType":"string"},{"name":"newDescription","type":"string","internalType":"string"}],"outputs":[],"stateMutability":"nonpayable"},{"type":"function","name":"updateMangaTitle","inputs":[{"name":"tokenId","type":"uint256","internalType":"uint256"},{"name":"language","type":"string","internalType":"string"},{"name":"newTitle","type":"string","internalType":"string"}],"outputs":[],"stateMutability":"nonpayable"},{"type":"function","name":"updateMonthlyDataUploader","inputs":[{"name":"newMonthlyDataUploader","type":"address","internalType":"address"}],"outputs":[],"stateMutability":"nonpayable"},{"type":"function","name":"updatePaymentToken","inputs":[{"name":"newToken","type":"address","internalType":"address"}],"outputs":[],"stateMutability":"nonpayable"},{"type":"function","name":"updatePlatformAddress","inputs":[{"name":"newAddress","type":"address","internalType":"address"}],"outputs":[],"stateMutability":"nonpayable"},{"type":"function","name":"uri","inputs":[{"name":"tokenId","type":"uint256","internalType":"uint256"}],"outputs":[{"name":"","type":"string","internalType":"string"}],"stateMutability":"view"},{"type":"event","name":"ApprovalForAll","inputs":[{"name":"account","type":"address","indexed":true,"internalType":"address"},{"name":"operator","type":"address","indexed":true,"internalType":"address"},{"name":"approved","type":"bool","indexed":false,"internalType":"bool"}],"anonymous":false},{"type":"event","name":"BatchFreeMinted","inputs":[{"name":"successes","type":"tuple[]","indexed":false,"internalType":"struct MangaNFT.MintSuccess[]","components":[{"name":"recipient","type":"address","internalType":"address"},{"name":"tokenId","type":"uint256","internalType":"uint256"}]},{"name":"failures","type":"tuple[]","indexed":false,"internalType":"struct MangaNFT.MintFailure[]","components":[{"name":"recipient","type":"address","internalType":"address"},{"name":"tokenId","type":"uint256","internalType":"uint256"},{"name":"reason","type":"string","internalType":"string"}]}],"anonymous":false},{"type":"event","name":"BatchMinted","inputs":[{"name":"recipients","type":"address[]","indexed":false,"internalType":"address[]"},{"name":"tokenIds","type":"uint256[]","indexed":false,"internalType":"uint256[]"}],"anonymous":false},{"type":"event","name":"ChapterCreated","inputs":[{"name":"tokenId","type":"uint256","indexed":true,"internalType":"uint256"},{"name":"creator","type":"address","indexed":true,"internalType":"address"},{"name":"mangaTitleZh","type":"string","indexed":false,"internalType":"string"},{"name":"mangaTitleEn","type":"string","indexed":false,"internalType":"string"},{"name":"mangaTitleJp","type":"string","indexed":false,"internalType":"string"}],"anonymous":false},{"type":"event","name":"ChapterDescriptionUpdated","inputs":[{"name":"tokenId","type":"uint256","indexed":true,"internalType":"uint256"},{"name":"language","type":"string","indexed":false,"internalType":"string"},{"name":"newDescription","type":"string","indexed":false,"internalType":"string"}],"anonymous":false},{"type":"event","name":"ChapterDescriptionUpdated","inputs":[{"name":"tokenId","type":"uint256","indexed":true,"internalType":"uint256"},{"name":"newDescription","type":"string","indexed":false,"internalType":"string"}],"anonymous":false},{"type":"event","name":"ChapterMinted","inputs":[{"name":"tokenId","type":"uint256","indexed":true,"internalType":"uint256"},{"name":"to","type":"address","indexed":true,"internalType":"address"},{"name":"amountMinted","type":"uint256","indexed":false,"internalType":"uint256"},{"name":"mintTime","type":"uint256","indexed":false,"internalType":"uint256"}],"anonymous":false},{"type":"event","name":"MangaTitleUpdated","inputs":[{"name":"tokenId","type":"uint256","indexed":true,"internalType":"uint256"},{"name":"language","type":"string","indexed":false,"internalType":"string"},{"name":"newTitle","type":"string","indexed":false,"internalType":"string"}],"anonymous":false},{"type":"event","name":"OwnershipTransferred","inputs":[{"name":"previousOwner","type":"address","indexed":true,"internalType":"address"},{"name":"newOwner","type":"address","indexed":true,"internalType":"address"}],"anonymous":false},{"type":"event","name":"PaymentReceived","inputs":[{"name":"buyer","type":"address","indexed":true,"internalType":"address"},{"name":"tokenId","type":"uint256","indexed":true,"internalType":"uint256"},{"name":"amount","type":"uint256","indexed":false,"internalType":"uint256"}],"anonymous":false},{"type":"event","name":"PaymentTokenUpdated","inputs":[{"name":"oldToken","type":"address","indexed":true,"internalType":"address"},{"name":"newToken","type":"address","indexed":true,"internalType":"address"}],"anonymous":false},{"type":"event","name":"PlatformAddressUpdated","inputs":[{"name":"oldAddress","type":"address","indexed":true,"internalType":"address"},{"name":"newAddress","type":"address","indexed":true,"internalType":"address"}],"anonymous":false},{"type":"event","name":"RefundIssued","inputs":[{"name":"buyer","type":"address","indexed":true,"internalType":"address"},{"name":"tokenId","type":"uint256","indexed":true,"internalType":"uint256"},{"name":"amount","type":"uint256","indexed":false,"internalType":"uint256"}],"anonymous":false},{"type":"event","name":"TransferBatch","inputs":[{"name":"operator","type":"address","indexed":true,"internalType":"address"},{"name":"from","type":"address","indexed":true,"internalType":"address"},{"name":"to","type":"address","indexed":true,"internalType":"address"},{"name":"ids","type":"uint256[]","indexed":false,"internalType":"uint256[]"},{"name":"values","type":"uint256[]","indexed":false,"internalType":"uint256[]"}],"anonymous":false},{"type":"event","name":"TransferSingle","inputs":[{"name":"operator","type":"address","indexed":true,"internalType":"address"},{"name":"from","type":"address","indexed":true,"internalType":"address"},{"name":"to","type":"address","indexed":true,"internalType":"address"},{"name":"id","type":"uint256","indexed":false,"internalType":"uint256"},{"name":"value","type":"uint256","indexed":false,"internalType":"uint256"}],"anonymous":false},{"type":"event","name":"URI","inputs":[{"name":"value","type":"string","indexed":false,"internalType":"string"},{"name":"id","type":"uint256","indexed":true,"internalType":"uint256"}],"anonymous":false},{"type":"error","name":"ERC1155InsufficientBalance","inputs":[{"name":"sender","type":"address","internalType":"address"},{"name":"balance","type":"uint256","internalType":"uint256"},{"name":"needed","type":"uint256","internalType":"uint256"},{"name":"tokenId","type":"uint256","internalType":"uint256"}]},{"type":"error","name":"ERC1155InvalidApprover","inputs":[{"name":"approver","type":"address","internalType":"address"}]},{"type":"error","name":"ERC1155InvalidArrayLength","inputs":[{"name":"idsLength","type":"uint256","internalType":"uint256"},{"name":"valuesLength","type":"uint256","internalType":"uint256"}]},{"type":"error","name":"ERC1155InvalidOperator","inputs":[{"name":"operator","type":"address","internalType":"address"}]},{"type":"error","name":"ERC1155InvalidReceiver","inputs":[{"name":"receiver","type":"address","internalType":"address"}]},{"type":"error","name":"ERC1155InvalidSender","inputs":[{"name":"sender","type":"address","internalType":"address"}]},{"type":"error","name":"ERC1155MissingApprovalForAll","inputs":[{"name":"operator","type":"address","internalType":"address"},{"name":"owner","type":"address","internalType":"address"}]},{"type":"error","name":"OwnableInvalidOwner","inputs":[{"name":"owner","type":"address","internalType":"address"}]},{"type":"error","name":"OwnableUnauthorizedAccount","inputs":[{"name":"account","type":"address","internalType":"address"}]}],"bytecode":{"object":"0x60406080815234620003b45762003a7b803803806200001e81620003b8565b9283398101608082820312620003b45781516001600160401b039290838111620003b457810190601f91838382011215620003b4578051948086116200038b57602095601f19926200007686830185168901620003b8565b96828852888383010111620003b45787905f5b8381106200039f5750505f9187010152620000a6868401620003de565b94620000c26060620000ba8a8701620003de565b9501620003de565b9481519283116200038b57600254916001928381811c9116801562000380575b8a8210146200036c5782811162000323575b5088918411600114620002bf57839450908392915f94620002b3575b50501b915f199060031b1c1916176002555b33156200029c5760058054336001600160a01b031980831682179093558751929592936001600160a01b0393909284929083167f8be0079c531659141344cd1fd0a4f28419497f9722a3daafe3b4186f6b6457e05f80a361012c600b55169283156200025a57508116928315620002165716938415620001c5575082600954161760095581600a541617600a55600c541617600c55516136879081620003f48239f35b60849086519062461bcd60e51b82526004820152602560248201527f496e76616c6964206d6f6e74686c7920646174612075706c6f61646572206164604482015264647265737360d81b6064820152fd5b865162461bcd60e51b815260048101879052601560248201527f496e76616c696420746f6b656e206164647265737300000000000000000000006044820152606490fd5b62461bcd60e51b815260048101879052601860248201527f496e76616c696420706c6174666f726d206164647265737300000000000000006044820152606490fd5b8451631e4fbdf760e01b81525f6004820152602490fd5b015192505f8062000110565b919383169160025f5283895f20935f5b8b888383106200030b5750505010620002f2575b505050811b0160025562000122565b01515f1960f88460031b161c191690555f8080620002e3565b868601518855909601959485019487935001620002cf565b60025f52895f208380870160051c8201928c881062000362575b0160051c019084905b82811062000356575050620000f4565b5f815501849062000346565b925081926200033d565b634e487b7160e01b5f52602260045260245ffd5b90607f1690620000e2565b634e487b7160e01b5f52604160045260245ffd5b81810183015189820184015289920162000089565b5f80fd5b6040519190601f01601f191682016001600160401b038111838210176200038b57604052565b51906001600160a01b0382168203620003b45756fe60806040526004361015610011575f80fd5b5f3560e01c8062fdd58e1461025357806301ffc9a71461024e5780630e89341c146102495780631611992d1461024457806318160ddd1461023f57806319fe5ab41461023a57806322f5bc0f146102355780632eb2c2d6146102305780633013ce291461022b578063328ac221146102265780634a51e896146102215780634ccf1b341461021c5780634e1273f4146102175780634f558e79146102125780635d90aa8b1461020d5780635f45903014610208578063615544e214610203578063681ece9d146101fe578063715018a6146101f957806375dad42b146101f45780637e628d68146101ef5780638da5cb5b146101ea5780638f9f193f146101e557806396d23e15146101e0578063994dddcd146101db578063a1375685146101d6578063a22cb465146101d1578063ab63385c146101cc578063bd85b039146101c7578063cb6a3e4c146101c2578063dbe55e56146101bd578063e985e9c5146101b8578063eeeeeca5146101b3578063f242432a146101ae578063f2fde38b146101a95763fd0f5a59146101a4575f80fd5b611e1c565b611c7c565b611b5a565b611a40565b6119dc565b6119b4565b6118fd565b6118d3565b611847565b611779565b611751565b611734565b61164c565b6115d4565b6115ac565b611494565b6113c9565b61136e565b611278565b61112f565b610e7e565b610ddd565b610db1565b610cf5565b610bed565b610b19565b6108d9565b610868565b610740565b61062b565b6105ed565b61048f565b6103cc565b610387565b6102db565b61027d565b6001600160a01b0381160361026957565b5f80fd5b610104359061027b82610258565b565b346102695760403660031901126102695760206102c060043561029f81610258565b6024355f525f835260405f209060018060a01b03165f5260205260405f2090565b54604051908152f35b6001600160e01b031981160361026957565b346102695760203660031901126102695760206004356102fa816102c9565b63ffffffff60e01b16636cdb3d1360e11b8114908115610338575b8115610327575b506040519015158152f35b6301ffc9a760e01b1490505f61031c565b6303a24d0760e21b81149150610315565b91908251928382525f5b848110610373575050825f602080949584010152601f8019910116010190565b602081830181015184830182015201610353565b34610269576020366003190112610269576004355f52600d6020526103c86103b4600a60405f2001611d3f565b604051918291602083526020830190610349565b0390f35b34610269576040366003190112610269576004356103e981610258565b60243561040e60018060a01b0361040581600954163314611ec9565b83161515611f0e565b5f818152602081815260408083206001600160a01b03861684529091529020549081156104405761043e92612bb5565b005b60405162461bcd60e51b815260206004820152601f60248201527f496e766573746f7220646f6573206e6f7420686f6c642074686973204e4654006044820152606490fd5b5f91031261026957565b34610269575f366003190112610269576020600454604051908152f35b634e487b7160e01b5f52604160045260245ffd5b60e081019081106001600160401b038211176104db57604052565b6104ac565b604081019081106001600160401b038211176104db57604052565b606081019081106001600160401b038211176104db57604052565b6001600160401b0381116104db57604052565b602081019081106001600160401b038211176104db57604052565b90601f801991011681019081106001600160401b038211176104db57604052565b6040519061027b826104e0565b6040519061027b826104fb565b6040519061027b826104c0565b6001600160401b0381116104db57601f01601f191660200190565b81601f82011215610269578035906105be8261058c565b926105cc6040519485610544565b8284526020838301011161026957815f926020809301838601378301015290565b34610269576040366003190112610269576024356001600160401b038111610269576103b46106236103c89236906004016105a7565b600435611f5e565b346102695760203660031901126102695760043561064881610258565b610650612cf8565b6001600160a01b03168015610676576001600160601b0360a01b600c541617600c555f80f35b60405162461bcd60e51b815260206004820152602560248201527f496e76616c6964206d6f6e74686c7920646174612075706c6f61646572206164604482015264647265737360d81b6064820152608490fd5b6001600160401b0381116104db5760051b60200190565b9080601f830112156102695760209082356106fa816106c9565b936107086040519586610544565b81855260208086019260051b82010192831161026957602001905b828210610731575050505090565b81358152908301908301610723565b346102695760a0366003190112610269576004803561075e81610258565b60243561076a81610258565b6001600160401b03906044358281116102695761078a90369086016106e0565b90606435838111610269576107a290369087016106e0565b92608435908111610269576107ba90369087016105a7565b936001600160a01b03808216903382141580610845575b6108185783161561080157156107eb5761043e9550612f19565b604051626a0d4560e21b81525f81880152602490fd5b604051632bfa23e760e11b81525f81890152602490fd5b6040805163711bec9160e11b815233818b019081526001600160a01b038616602082015290918291010390fd5b505f82815260016020908152604080832033845290915290205460ff16156107d1565b34610269575f36600319011261026957600a546040516001600160a01b039091168152602090f35b606060031982011261026957600435916001600160401b0360243581811161026957836108bf916004016105a7565b92604435918211610269576108d6916004016105a7565b90565b34610269576108e736610890565b6108f9835f52600d60205260405f2090565b60098101549092906109269061091f906001600160a01b03165b6001600160a01b031690565b3314612014565b805160208201908120610937612060565b60208151910120145f1461098857506109748260037febf29dace747502b0c66663dff2cd5b67d14e0c04037b2c293e2cf8aa3607e989501612109565b610983604051928392836121d8565b0390a2005b8151812061099461207e565b60208151910120145f146109d657506109d18260047febf29dace747502b0c66663dff2cd5b67d14e0c04037b2c293e2cf8aa3607e989501612109565b610974565b815190206109e261209c565b60208151910120145f14610a1e576109d18260057febf29dace747502b0c66663dff2cd5b67d14e0c04037b2c293e2cf8aa3607e989501612109565b60405162461bcd60e51b8152602060048201526014602482015273556e737570706f72746564206c616e677561676560601b6044820152606490fd5b6108d6916040610a88610a768451606085526060850190610349565b60208501518482036020860152610349565b920151906040818403910152610349565b906108d69160208152610ab9825160e06020840152610100830190610a5a565b9060e060c0610ada602086015194601f199586868303016040870152610a5a565b946040810151606085015260608101516080850152608081015160a085015260018060a01b0360a0820151168285015201519282850301910152610349565b34610269576020366003190112610269576103c86040606060c08251610b3e816104c0565b610b466121fd565b8152610b506121fd565b60208201525f848201525f838201525f60808201525f60a082015201526004355f52600d602052805f2090610bde600a825193610b8c856104c0565b610b9581611ddf565b8552610ba360038201611ddf565b6020860152600681015484860152600781015460608601526008810154608086015260098101546001600160a01b031660a086015201611d3f565b60c08301525191829182610a99565b3461026957602036600319011261026957600435610c0a81610258565b610c12612cf8565b6001600160a01b03908116908115610c7457600a5481166001600160a01b0316600a80546001600160a01b0319166001600160a01b038516179055167f5efdfedf5aef119c431263f0656093045dffdf44b3d8f1b0f158dc295c3a0f8e5f80a3005b60405162461bcd60e51b8152602060048201526015602482015274496e76616c696420746f6b656e206164647265737360581b6044820152606490fd5b9081518082526020808093019301915f5b828110610cd0575050505090565b835185529381019392810192600101610cc2565b9060206108d6928181520190610cb1565b34610269576040366003190112610269576004356001600160401b038082116102695736602383011215610269578160040135610d31816106c9565b92610d3f6040519485610544565b8184526020916024602086019160051b8301019136831161026957602401905b828210610d985785602435868111610269576103c891610d86610d8c9236906004016106e0565b90612235565b60405191829182610ce4565b8380918335610da681610258565b815201910190610d5f565b34610269576020366003190112610269576004355f526003602052602060405f20541515604051908152f35b3461026957602036600319011261026957600435610dfa81610258565b600c5460405163173f465f60e11b81526001600160a01b0392831660048201529160209183916024918391165afa8015610e79576103c8915f91610e4a575b506040519081529081906020820190565b610e6c915060203d602011610e72575b610e648183610544565b8101906122f2565b5f610e39565b503d610e5a565b612301565b346102695760208060031936011261026957600490600435906001600160401b03908183116102695736602384011215610269578260040135918211610269576024830192602436916060850201011161026957610ee760018060a01b03600954163314611ec9565b610ef08261230c565b91610efa8161236a565b935f925f925f5b818110610f44578487528588526040517fba1083a54e419df7533bcfb50dad5e1865d83d3503e0a77bf1d731bbba302aaa9080610f3f8b8b836124bb565b0390a1005b610f4f8183866123ce565b610f58816123de565b84820135916040918282013590303b156102695783516332da8f9360e21b81526001600160a01b03909116818f0190815260208101869052604081018390528c91905f9082908190606001038183305af190816110f3575b506110a85750506001610fc161240a565b6308c379a01461103f575b610fde575b5050506001905b01610f01565b916001939891610ff0611036946123de565b9161100b610ffc610572565b6001600160a01b039094168452565b87830152611017612492565b90820152611025828c61221c565b52611030818b61221c565b506123fc565b95905f80610fd1565b8b611048612425565b9081611056575b5050610fcc565b6110a092508b611030915f9d9361106c876123de565b90611087611078610572565b6001600160a01b039093168352565b898d8301528882015261109a838361221c565b5261221c565b985f8c61104f565b6110ee93506110e38a611030859c6110e9948c8a6110ca60019d9c999a6123de565b916110d6610ffc610565565b82015261109a838361221c565b996123de565b612bb5565b610fd8565b8061110061110692610516565b80610485565b5f610fb0565b60609060031901126102695760043561112481610258565b906024359060443590565b346102695761113d3661110c565b6009546001600160a01b03906111569082163314611ec9565b83169283156111fb57816111e07f56ab280d0d628c712f612fc085bb34818d67453581216f85a05fb48d68ed16d593856111f69461119c825f52600d60205260405f2090565b6111c76111bb856111b5865f52600360205260405f2090565b546125aa565b600883015410156125b7565b6007429101556110e96111d8611f4c565b848484612d63565b6040805191825242602083015290918291820190565b0390a3005b60405162461bcd60e51b8152602060048201526011602482015270125b9d985b1a59081c9958da5c1a595b9d607a1b6044820152606490fd5b60209060206040818301928281528551809452019301915f5b82811061125b575050505090565b83516001600160a01b03168552938101939281019260010161124d565b346102695760208060031936011261026957600c5460405163681ece9d60e01b81526004803590820152905f90829060249082906001600160a01b03165afa908115610e79575f916112d3575b604051806103c88482611234565b90503d805f833e6112e48183610544565b8101908281830312610269578051906001600160401b03821161026957019080601f83011215610269578151611319816106c9565b926113276040519485610544565b818452848085019260051b820101928311610269578401905b828210611355575050506103c891505f6112c5565b848091835161136381610258565b815201910190611340565b34610269575f36600319011261026957611386612cf8565b600580546001600160a01b031981169091555f906001600160a01b03167f8be0079c531659141344cd1fd0a4f28419497f9722a3daafe3b4186f6b6457e08280a3005b34610269576020366003190112610269576004356113e681610258565b600c5460405163b637ce3760e01b81526001600160a01b0392831660048201529160209183916024918391165afa8015610e79576103c8915f91610e4a57506040519081529081906020820190565b602080820190602083528351809252602060408094019401925f905b83821061146057505050505090565b90919293948382826114876001948a516020809160018060a01b0381511684520151910152565b0196019493920190611451565b346102695760208060031936011261026957600c5460408051630fcc51ad60e31b8152600480359082015292915f90849060249082906001600160a01b03165afa918215610e79575f926114f0575b8151806103c88582611435565b9091503d805f853e6115028185610544565b8301928181850312610269578051906001600160401b038211610269570183601f8201121561026957805191611537836106c9565b9261154485519485610544565b808452818085019160061b84010192868411610269578201905b83821061157557505050506103c89250905f6114e3565b858288031261026957828691825161158c816104e0565b845161159781610258565b8152828501518382015281520191019061155e565b34610269575f366003190112610269576005546040516001600160a01b039091168152602090f35b34610269576020366003190112610269576004356115f181610258565b6115f9612cf8565b6001600160a01b0390811690611610821515611f0e565b600954826001600160601b0360a01b821617600955167f98a658829c402c9165360ccdcf4bfb731b08f78bcd9aa1b584cc4bbcb90024195f80a3005b3461026957610120366003190112610269576001600160401b03600480358281116102695761167e90369083016105a7565b6024358381116102695761169590369084016105a7565b90604435848111610269576116ad90369085016105a7565b90606435858111610269576116c590369086016105a7565b608435868111610269576116dc90369087016105a7565b60a435878111610269576116f390369088016105a7565b9160e43597881161026957611711611724976103c8993691016105a7565b9461171a61026d565b9660c435956128db565b6040519081529081906020820190565b34610269575f366003190112610269576020600b54604051908152f35b34610269575f36600319011261026957600c546040516001600160a01b039091168152602090f35b346102695760403660031901126102695760043561179681610258565b602435801515808203610269576001600160a01b03831692831561181c57335f9081526001602090815260408083206001600160a01b039094168352929052209060ff801983541691161790557f17307eab39ab6107e8899845ad3d59bd9653f200f220920489ca2b5937696c31604051806111f6339482919091602081019215159052565b60405162ced3e160e81b81525f6004820152602490fd5b634e487b7160e01b5f52603260045260245ffd5b346102695760403660031901126102695760043561186481610258565b6001600160a01b03165f908152600e6020526040902080546024359190821015610269575f5260205f209060021b0180546103c860018301549260ff60036002830154920154169060405194859485926060929594919560808501968552602085015260408401521515910152565b34610269576020366003190112610269576004355f526003602052602060405f2054604051908152f35b346102695761190b3661110c565b9161192e60018060a01b0361192581600954163314611ec9565b82161515611f0e565b815f52600d60205260405f2092600360205260405f20548181018091116119af576008850154106119755761196b92611965611f4c565b92612d63565b6007429101555f80f35b60405162461bcd60e51b815260206004820152601260248201527113585e081cdd5c1c1b1e481c995858da195960721b6044820152606490fd5b6123e8565b34610269575f366003190112610269576009546040516001600160a01b039091168152602090f35b3461026957604036600319011261026957602060ff611a34600435611a0081610258565b60243590611a0d82610258565b60018060a01b03165f526001845260405f209060018060a01b03165f5260205260405f2090565b54166040519015158152f35b3461026957611a4e36610890565b611a60835f52600d60205260405f2090565b6009810154909290611a7e9061091f906001600160a01b0316610913565b805160208201908120611a8f612060565b60208151910120145f14611ac95750610974827f033d86ef340f160b42b940c6275619e4d30d778f2fc2c6a7e28e729d9bcad22394612109565b81518120611ad561207e565b60208151910120145f14611b1257506109d18260017f033d86ef340f160b42b940c6275619e4d30d778f2fc2c6a7e28e729d9bcad2239501612109565b81519020611b1e61209c565b60208151910120145f14610a1e576109d18260027f033d86ef340f160b42b940c6275619e4d30d778f2fc2c6a7e28e729d9bcad2239501612109565b346102695760a036600319011261026957600435611b7781610258565b602435611b8381610258565b6084356001600160401b03811161026957611ba29036906004016105a7565b906001600160a01b03838116903382141580611c59575b611c3257821615611c1a5715611c035761043e92611bfb6064356044359160405192600184526020840152604083019160018352606084015260808301604052565b929091612f19565b604051626a0d4560e21b81525f6004820152602490fd5b604051632bfa23e760e11b81525f6004820152602490fd5b60405163711bec9160e11b81523360048201526001600160a01b0386166024820152604490fd5b505f82815260016020908152604080832033845290915290205460ff1615611bb9565b3461026957602036600319011261026957600435611c9981610258565b611ca1612cf8565b6001600160a01b03908116908115611cef57600554826001600160601b0360a01b821617600555167f8be0079c531659141344cd1fd0a4f28419497f9722a3daafe3b4186f6b6457e05f80a3005b604051631e4fbdf760e01b81525f6004820152602490fd5b90600182811c92168015611d35575b6020831014611d2157565b634e487b7160e01b5f52602260045260245ffd5b91607f1691611d16565b9060405191825f8254611d5181611d07565b908184526020946001916001811690815f14611dbd5750600114611d7f575b50505061027b92500383610544565b5f90815285812095935091905b818310611da557505061027b93508201015f8080611d70565b85548884018501529485019487945091830191611d8c565b9250505061027b94925060ff191682840152151560051b8201015f8080611d70565b90604051611dec816104fb565b6040611e1760028395611dfe81611d3f565b8552611e0c60018201611d3f565b602086015201611d3f565b910152565b34610269576020366003190112610269576004355f52600d602052611e9960405f206103c8611e4a82611ddf565b91611e5760038201611ddf565b6006820154916007810154600882015490611ea7611e84600a60018060a01b036009870154169501611d3f565b94604051998a9960e08b5260e08b0190610a5a565b9089820360208b0152610a5a565b9460408801526060870152608086015260a085015283820360c0850152610349565b15611ed057565b60405162461bcd60e51b815260206004820152601660248201527513db9b1e481c1b185d199bdc9b4818d85b881b5a5b9d60521b6044820152606490fd5b15611f1557565b60405162461bcd60e51b815260206004820152600f60248201526e496e76616c6964206164647265737360881b6044820152606490fd5b60405190611f5982610529565b5f8252565b5f52600d602052611f7160405f20611ddf565b90602081519101207fba95268f0188fbb7b4fdf2bc80c328c3d463061fd1bcd4fab667a916652d33bb811461200f577f5411878c6a5242c13ce975e31d3d12d9e9433ea21462dd40461d4cddb20769fc8114612007577f0e7296dc5d2c95eac8392485576c078cd1cac747a0d2b0b29273ea313ed7730c146120005750604051611ffa81610529565b5f815290565b6040015190565b506020015190565b505190565b1561201b57565b60405162461bcd60e51b815260206004820152601760248201527f4f6e6c792063726561746f722063616e207570646174650000000000000000006044820152606490fd5b6040519061206d826104e0565b60028252610f4d60f31b6020830152565b6040519061208b826104e0565b600282526132b760f11b6020830152565b604051906120a9826104e0565b600282526106a760f41b6020830152565b601f82116120c757505050565b5f5260205f20906020601f840160051c830193106120ff575b601f0160051c01905b8181106120f4575050565b5f81556001016120e9565b90915081906120e0565b91909182516001600160401b0381116104db576121308161212a8454611d07565b846120ba565b602080601f8311600114612171575081906121629394955f92612166575b50508160011b915f199060031b1c19161790565b9055565b015190505f8061214e565b90601f19831695612185855f5260205f2090565b925f905b8882106121c0575050836001959697106121a8575b505050811b019055565b01515f1960f88460031b161c191690555f808061219e565b80600185968294968601518155019501930190612189565b90916121ef6108d693604084526040840190610349565b916020818403910152610349565b6040519061220a826104fb565b60606040838281528260208201520152565b80518210156122305760209160051b010190565b611833565b919091805183518082036122d057505080519061226a612254836106c9565b926122626040519485610544565b8084526106c9565b60209190601f190136848401375f5b81518110156122c857600581901b8281018401519087018401515f908152602081815260408083206001600160a01b0390941683529290522054600191906122c1828761221c565b5201612279565b509193505050565b604051635b05999160e01b815260048101919091526024810191909152604490fd5b90816020910312610269575190565b6040513d5f823e3d90fd5b90612316826106c9565b6040906123266040519182610544565b8381528093612337601f19916106c9565b01915f5b8381106123485750505050565b6020908251612356816104e0565b5f8152825f8183015282860101520161233b565b90612374826106c9565b6040906123846040519182610544565b8381528093612395601f19916106c9565b01915f5b8381106123a65750505050565b60209082516123b4816104fb565b5f8152825f81830152606085830152828601015201612399565b9190811015612230576060020190565b356108d681610258565b634e487b7160e01b5f52601160045260245ffd5b5f1981146119af5760010190565b5f9060033d1161241657565b905060045f803e5f5160e01c90565b5f60443d106108d657604051600319913d83016004833e81516001600160401b03918282113d60248401111761248157818401948551938411612489573d8501016020848701011161248157506108d692910160200190610544565b949350505050565b50949350505050565b6040519061249f826104e0565b600d82526c2ab735b737bbb71032b93937b960991b6020830152565b604090604081019260408252805180945260609160608101946020809301905f5b81811061256c575050508181860391015284519182855281850182808560051b8801019701945f925b85841061251757505050505050505090565b90919293949596989785806125586001938d601f1990820301885285878d51878060a01b038151168452858101518685015201519181898201520190610349565b9a9b99019796959190910193019190612505565b90919897968487826125976001948e9b999a9b516020809160018060a01b0381511684520151910152565b9a9b999a019895979695019291016124dc565b919082018092116119af57565b156125be57565b60405162461bcd60e51b815260206004820152600e60248201526d4e6f206d6f726520636f7069657360901b6044820152606490fd5b156125fb57565b606460405162461bcd60e51b815260206004820152602060248201527f6d6178436f70696573206d757374206265206d756c7469706c65206f662031306044820152fd5b91909182519283516001600160401b0381116104db57612669816126638554611d07565b856120ba565b602080601f83116001146126bf5750916126a28260409360029561027b98995f926121665750508160011b915f199060031b1c19161790565b84555b6126b6602082015160018601612109565b01519101612109565b90601f198316966126d3865f5260205f2090565b925f905b89821061271c57505092600294926001926040958361027b9a9b10612704575b505050811b0184556126a5565b01515f1960f88460031b161c191690555f80806126f7565b806001859682949686015181550195019301906126d7565b90805180518051906001600160401b0382116104db5761275e826127588754611d07565b876120ba565b602090601f8311600114612815576040600a9461279c8560c09661027b9a99966127bb965f926121665750508160011b915f199060031b1c19161790565b87555b6127b0602082015160018901612109565b015160028601612109565b6127cc60208201516003860161263f565b60408101516006850155606081015160078501556080810151600885015560a08101516009850180546001600160a01b0319166001600160a01b039092169190911790556126b6565b90601f19831691612829875f5260205f2090565b925f5b81811061287657509460018561027b9998956127bb9560409560c099600a9b1061285e575b505050811b01875561279f565b01515f1960f88460031b161c191690555f8080612851565b9293602060018192878601518155019501930161282c565b916128b7906128a96108d69593606086526060860190610349565b908482036020860152610349565b916040818403910152610349565b908160021b91808304600414901517156119af57565b907f0b081efce330bda1cb49fe58034b56791ca406089279290eb5a5b29afc498107916129a48498966129bb9a9b9895969b612915612da7565b9c8d978a151580612baa575b61292a906125f4565b612932610572565b9386855287602086015260409d8e86015261294b610572565b92835260208301528c82015261295f61057f565b9283526020830152428b8301525f6060830152608082018990526001600160a01b038a1660a083015260c082015261299f865f52600d60205260405f2090565b612734565b60018060a01b03871698899589519384938461288e565b0390a3600c546129d3906001600160a01b0316610913565b803b156102695783516302782a4960e41b81526001600160a01b038416600482015260248101879052905f908290604490829084905af18015610e7957612b97575b50612a29612a22826128c5565b6005900490565b90612a3d612a35611f4c565b838886612d63565b600954612a5c906001600160a01b031687612a56611f4c565b91612d24565b600c54612a71906001600160a01b0316610913565b803b1561026957845163cc0266f760e01b8152600481018890526001600160a01b0385166024820152905f908290604490829084905af18015610e7957612b84575b50426007612ac9885f52600d60205260405f2090565b0155600c54612ae0906001600160a01b0316610913565b92833b15610269578451637f9803b360e01b81526001600160a01b03919091166004820152602481019190915260448101829052915f908390606490829084905af1908115610e795785937f56ab280d0d628c712f612fc085bb34818d67453581216f85a05fb48d68ed16d593612b6b93612b71575b50519081524260208201529081906040820190565b0390a390565b80611100612b7e92610516565b5f612b56565b80611100612b9192610516565b5f612ab3565b80611100612ba492610516565b5f612a15565b50600a8b0615612921565b600c54909190612bcd906001600160a01b0316610913565b803b156102695760405163cc0266f760e01b8152600481018390526001600160a01b0384166024820152905f908290604490829084905af18015610e7957612ce5575b50600c54612c26906001600160a01b0316610913565b803b1561026957604051634892360960e01b81526001600160a01b038416600482015260248101929092525f908290604490829084905af18015610e7957612cd2575b50600c54612c7f906001600160a01b0316610913565b91823b1561026957604051630e2a8ef360e31b81526001600160a01b039290921660048301526024820152905f908290604490829084905af18015610e7957612cc55750565b8061110061027b92610516565b80611100612cdf92610516565b5f612c69565b80611100612cf292610516565b5f612c10565b6005546001600160a01b03163303612d0c57565b60405163118cdaa760e01b8152336004820152602490fd5b9091906001600160a01b03811615611c1a5761027b92604051906001825260208201526040810191600183526001606083015260808201604052612dee565b919291906001600160a01b03821615611c1a5761027b93612da160405192600184526020840152604083019160018352606084015260808301604052565b91612dee565b6007544203612de1575b612dbc6008546123fc565b80600855620f4240908142029142830414421517156119af5781018091116119af5790565b426007555f600855612db1565b93919091612dfd82848761338b565b5f94855b8451871015612e4d57612e456001918860051b90612e33602080848a010151938a0101515f52600360205260405f2090565b612e3e8382546125aa565b90556125aa565b960195612e01565b612e67919594929650612e62906004546125aa565b600455565b6001600160a01b0384161580612eba575b15612e84575b50505050565b8051600103612eab5790602080612ea29593015191015191336132fa565b5f808080612e7e565b612eb59333613105565b612ea2565b935f9591935f965b8551881015612f00576001908860051b90612ef1602080848a010151938a0101515f52600360205260405f2090565b82815403905501970196612ec2565b612f14919593975095919560045403600455565b612e78565b91939290612f29828683866134b4565b6001600160a01b0383811615612fe5575b81161580612f87575b15612f50575b5050505050565b8451600103612f7657602080612f6c960151920151923361332f565b5f80808080612f49565b612f82949192336131fe565b612f6c565b94935f939091845b8651861015612fcd576001908660051b90612fbe602080848a010151938b0101515f52600360205260405f2090565b82815403905501950194612f8f565b612fe09193969792955060045403600455565b612f43565b9591925f94915f955b8751871015613028576130206001918860051b90612e33602080848c010151938d0101515f52600360205260405f2090565b960195612fee565b61304091939650612e629098929594986004546125aa565b612f3a565b9081602091031261026957516108d6816102c9565b926130886108d695936130969360018060a01b031686525f602087015260a0604087015260a0860190610cb1565b908482036060860152610cb1565b916080818403910152610349565b93906108d69593613088916130969460018060a01b03809216885216602087015260a0604087015260a0860190610cb1565b3d15613100573d906130e78261058c565b916130f56040519384610544565b82523d5f602084013e565b606090565b9293919093843b613117575050505050565b60209161313a604051948593849363bc197c8160e01b988986526004860161305a565b03815f6001600160a01b0388165af15f91816131cd575b50613190578261315f6130d6565b805191908261318957604051632bfa23e760e11b81526001600160a01b0383166004820152602490fd5b6020915001fd5b6001600160e01b031916036131aa57505f80808080612f49565b604051632bfa23e760e11b81526001600160a01b03919091166004820152602490fd5b6131f091925060203d6020116131f7575b6131e88183610544565b810190613045565b905f613151565b503d6131de565b939290949194853b613213575b505050505050565b613236602093604051958694859463bc197c8160e01b998a8752600487016130a4565b03815f6001600160a01b0388165af15f9181613276575b5061325b578261315f6130d6565b6001600160e01b031916036131aa57505f808080808061320b565b61329091925060203d6020116131f7576131e88183610544565b905f61324d565b909260a0926108d69594600180861b031683525f6020840152604083015260608201528160808201520190610349565b91926108d695949160a094600180871b038092168552166020840152604083015260608201528160808201520190610349565b9293919093843b61330c575050505050565b60209161313a604051948593849363f23a6e6160e01b9889865260048601613297565b939290949194853b61334357505050505050565b613236602093604051958694859463f23a6e6160e01b998a8752600487016132c7565b909161337d6108d693604084526040840190610cb1565b916020818403910152610cb1565b91909182518251908181036122d05750505f5b835181101561341757600581901b84810160209081015191850101516001929184906001600160a01b0382166133d8575b5050500161339e565b61340d916133f0613405925f525f60205260405f2090565b9060018060a01b03165f5260205260405f2090565b9182546125aa565b90555f83816133cf565b509160018151145f14613476576020908101519181015160408051938452918301526001600160a01b03909216915f9133917fc3d58168c5ae7397731d063d5bbf3d657854427343f4c083240f7aacaa2d0f629190819081015b0390a4565b7f4a39dc06d4c0dbc64b70af90fd698a233a518aa5d07e595d983b8c0526c8f7fb6134715f939460405191829160018060a01b031696339583613366565b93929180518351908181036122d05750505f5b81518110156135ac57600581901b82810160209081015191860101516001600160a01b039291859089851661352c575b600194821661350a575b505050016134c7565b613522916133f0613405925f525f60205260405f2090565b90555f8481613501565b9192939050613546896133f0845f525f60205260405f2090565b54838110613575579186918460019695940361356d8c6133f0855f525f60205260405f2090565b5594506134f7565b6040516303dee4c560e01b81526001600160a01b038b16600482015260248101919091526044810184905260648101839052608490fd5b50805193949391929160010361360e576020908101519181015160408051938452918301526001600160a01b03928316939092169133917fc3d58168c5ae7397731d063d5bbf3d657854427343f4c083240f7aacaa2d0f629181908101613471565b6040516001600160a01b03938416949093169233927f4a39dc06d4c0dbc64b70af90fd698a233a518aa5d07e595d983b8c0526c8f7fb928291613471918361336656fea26469706673582212209345dcab554e78b6b0b4b846713319aca5426782fabc5b70c8b7d83fc162183c64736f6c63430008180033","linkReferences":{}},"methodIdentifiers":{"_safeFreeMint(address,uint256,uint256)":"cb6a3e4c","balanceOf(address,uint256)":"00fdd58e","balanceOfBatch(address[],uint256[])":"4e1273f4","batchSafeFreeMint((address,uint256,uint256)[])":"5f459030","createChapter(string,string,string,string,string,string,uint256,string,address)":"96d23e15","exists(uint256)":"4f558e79","freeMint(address,uint256,uint256)":"615544e2","getChapterInfo(uint256)":"4a51e896","getChapterTitle(uint256,string)":"19fe5ab4","getCurrentHeldNFTCountByCreator(address)":"5d90aa8b","getCurrentHeldNFTCountByInvestor(address)":"75dad42b","getNFTOwnersWithBalance(uint256)":"7e628d68","getTokenOwners(uint256)":"681ece9d","investorRegistration(address,uint256)":"1611992d","isApprovedForAll(address,address)":"e985e9c5","mangaChapters(uint256)":"fd0f5a59","mintTimeout()":"994dddcd","monthlyDataUploader()":"a1375685","owner()":"8da5cb5b","paymentToken()":"3013ce29","payments(address,uint256)":"ab63385c","platformAddress()":"dbe55e56","renounceOwnership()":"715018a6","safeBatchTransferFrom(address,address,uint256[],uint256[],bytes)":"2eb2c2d6","safeTransferFrom(address,address,uint256,uint256,bytes)":"f242432a","setApprovalForAll(address,bool)":"a22cb465","supportsInterface(bytes4)":"01ffc9a7","totalSupply()":"18160ddd","totalSupply(uint256)":"bd85b039","transferOwnership(address)":"f2fde38b","updateChapterDescription(uint256,string,string)":"328ac221","updateMangaTitle(uint256,string,string)":"eeeeeca5","updateMonthlyDataUploader(address)":"22f5bc0f","updatePaymentToken(address)":"4ccf1b34","updatePlatformAddress(address)":"8f9f193f","uri(uint256)":"0e89341c"},"id":36}