{"abi":[{"type":"constructor","inputs":[{"name":"_platformAddress","type":"address","internalType":"address"},{"name":"_mangaNFTContract","type":"address","internalType":"address"}],"stateMutability":"nonpayable"},{"type":"function","name":"addCreator","inputs":[{"name":"creator","type":"address","internalType":"address"}],"outputs":[],"stateMutability":"nonpayable"},{"type":"function","name":"addCreatorChapter","inputs":[{"name":"creator","type":"address","internalType":"address"},{"name":"tokenId","type":"uint256","internalType":"uint256"}],"outputs":[],"stateMutability":"nonpayable"},{"type":"function","name":"addCreators","inputs":[{"name":"_creators","type":"address[]","internalType":"address[]"}],"outputs":[],"stateMutability":"nonpayable"},{"type":"function","name":"addInvestor","inputs":[{"name":"investor","type":"address","internalType":"address"}],"outputs":[],"stateMutability":"nonpayable"},{"type":"function","name":"addInvestorHeld","inputs":[{"name":"investor","type":"address","internalType":"address"},{"name":"tokenId","type":"uint256","internalType":"uint256"}],"outputs":[],"stateMutability":"nonpayable"},{"type":"function","name":"addInvestors","inputs":[{"name":"_investors","type":"address[]","internalType":"address[]"}],"outputs":[],"stateMutability":"nonpayable"},{"type":"function","name":"clearMonthlyData","inputs":[{"name":"yearMonth","type":"uint256","internalType":"uint256"}],"outputs":[],"stateMutability":"nonpayable"},{"type":"function","name":"creatorMonthlyAcquired","inputs":[{"name":"","type":"address","internalType":"address"},{"name":"","type":"uint256","internalType":"uint256"}],"outputs":[{"name":"","type":"uint256","internalType":"uint256"}],"stateMutability":"view"},{"type":"function","name":"creatorMonthlyPublished","inputs":[{"name":"","type":"address","internalType":"address"},{"name":"","type":"uint256","internalType":"uint256"}],"outputs":[{"name":"","type":"uint256","internalType":"uint256"}],"stateMutability":"view"},{"type":"function","name":"creatorTotalAcquired","inputs":[{"name":"","type":"address","internalType":"address"}],"outputs":[{"name":"","type":"uint256","internalType":"uint256"}],"stateMutability":"view"},{"type":"function","name":"creatorTotalPublished","inputs":[{"name":"","type":"address","internalType":"address"}],"outputs":[{"name":"","type":"uint256","internalType":"uint256"}],"stateMutability":"view"},{"type":"function","name":"creators","inputs":[{"name":"","type":"uint256","internalType":"uint256"}],"outputs":[{"name":"","type":"address","internalType":"address"}],"stateMutability":"view"},{"type":"function","name":"forceUploadMonthlyData","inputs":[],"outputs":[],"stateMutability":"nonpayable"},{"type":"function","name":"getAllCreators","inputs":[],"outputs":[{"name":"","type":"address[]","internalType":"address[]"}],"stateMutability":"view"},{"type":"function","name":"getAllInvestors","inputs":[],"outputs":[{"name":"","type":"address[]","internalType":"address[]"}],"stateMutability":"view"},{"type":"function","name":"getCreatorDataByMonth","inputs":[{"name":"yearMonth","type":"uint256","internalType":"uint256"}],"outputs":[{"name":"","type":"tuple[]","internalType":"struct MonthlyDataUploader.CreatorMonthlyData[]","components":[{"name":"creator","type":"address","internalType":"address"},{"name":"monthlyPublished","type":"uint256","internalType":"uint256"},{"name":"totalPublished","type":"uint256","internalType":"uint256"},{"name":"monthlyAcquired","type":"uint256","internalType":"uint256"},{"name":"currentHeld","type":"uint256","internalType":"uint256"},{"name":"timestamp","type":"uint256","internalType":"uint256"}]}],"stateMutability":"view"},{"type":"function","name":"getCreatorDataByMonths","inputs":[{"name":"yearMonths","type":"uint256[]","internalType":"uint256[]"}],"outputs":[{"name":"","type":"tuple[][]","internalType":"struct MonthlyDataUploader.CreatorMonthlyData[][]","components":[{"name":"creator","type":"address","internalType":"address"},{"name":"monthlyPublished","type":"uint256","internalType":"uint256"},{"name":"totalPublished","type":"uint256","internalType":"uint256"},{"name":"monthlyAcquired","type":"uint256","internalType":"uint256"},{"name":"currentHeld","type":"uint256","internalType":"uint256"},{"name":"timestamp","type":"uint256","internalType":"uint256"}]}],"stateMutability":"view"},{"type":"function","name":"getCreatorMonthlyData","inputs":[{"name":"creator","type":"address","internalType":"address"},{"name":"yearMonth","type":"uint256","internalType":"uint256"}],"outputs":[{"name":"","type":"tuple","internalType":"struct MonthlyDataUploader.CreatorMonthlyData","components":[{"name":"creator","type":"address","internalType":"address"},{"name":"monthlyPublished","type":"uint256","internalType":"uint256"},{"name":"totalPublished","type":"uint256","internalType":"uint256"},{"name":"monthlyAcquired","type":"uint256","internalType":"uint256"},{"name":"currentHeld","type":"uint256","internalType":"uint256"},{"name":"timestamp","type":"uint256","internalType":"uint256"}]}],"stateMutability":"view"},{"type":"function","name":"getCreatorMonthlyStats","inputs":[{"name":"creator","type":"address","internalType":"address"},{"name":"yearMonth","type":"uint256","internalType":"uint256"}],"outputs":[{"name":"monthlyPublished","type":"uint256","internalType":"uint256"},{"name":"monthlyAcquired","type":"uint256","internalType":"uint256"}],"stateMutability":"view"},{"type":"function","name":"getCreatorStats","inputs":[{"name":"creator","type":"address","internalType":"address"}],"outputs":[{"name":"totalPublished","type":"uint256","internalType":"uint256"},{"name":"totalAcquired","type":"uint256","internalType":"uint256"},{"name":"currentHeld","type":"uint256","internalType":"uint256"}],"stateMutability":"view"},{"type":"function","name":"getCurrentHeldNFTCountByCreatorExternal","inputs":[{"name":"creator","type":"address","internalType":"address"}],"outputs":[{"name":"","type":"uint256","internalType":"uint256"}],"stateMutability":"view"},{"type":"function","name":"getCurrentHeldNFTCountByInvestorExternal","inputs":[{"name":"investor","type":"address","internalType":"address"}],"outputs":[{"name":"","type":"uint256","internalType":"uint256"}],"stateMutability":"view"},{"type":"function","name":"getCurrentYearMonth","inputs":[],"outputs":[{"name":"","type":"uint256","internalType":"uint256"}],"stateMutability":"view"},{"type":"function","name":"getInvestorDataByMonth","inputs":[{"name":"yearMonth","type":"uint256","internalType":"uint256"}],"outputs":[{"name":"","type":"tuple[]","internalType":"struct MonthlyDataUploader.InvestorMonthlyData[]","components":[{"name":"investor","type":"address","internalType":"address"},{"name":"monthlyAcquired","type":"uint256","internalType":"uint256"},{"name":"totalAcquired","type":"uint256","internalType":"uint256"},{"name":"currentHeld","type":"uint256","internalType":"uint256"},{"name":"timestamp","type":"uint256","internalType":"uint256"}]}],"stateMutability":"view"},{"type":"function","name":"getInvestorDataByMonths","inputs":[{"name":"yearMonths","type":"uint256[]","internalType":"uint256[]"}],"outputs":[{"name":"","type":"tuple[][]","internalType":"struct MonthlyDataUploader.InvestorMonthlyData[][]","components":[{"name":"investor","type":"address","internalType":"address"},{"name":"monthlyAcquired","type":"uint256","internalType":"uint256"},{"name":"totalAcquired","type":"uint256","internalType":"uint256"},{"name":"currentHeld","type":"uint256","internalType":"uint256"},{"name":"timestamp","type":"uint256","internalType":"uint256"}]}],"stateMutability":"view"},{"type":"function","name":"getInvestorMonthlyData","inputs":[{"name":"investor","type":"address","internalType":"address"},{"name":"yearMonth","type":"uint256","internalType":"uint256"}],"outputs":[{"name":"","type":"tuple","internalType":"struct MonthlyDataUploader.InvestorMonthlyData","components":[{"name":"investor","type":"address","internalType":"address"},{"name":"monthlyAcquired","type":"uint256","internalType":"uint256"},{"name":"totalAcquired","type":"uint256","internalType":"uint256"},{"name":"currentHeld","type":"uint256","internalType":"uint256"},{"name":"timestamp","type":"uint256","internalType":"uint256"}]}],"stateMutability":"view"},{"type":"function","name":"getInvestorMonthlyStats","inputs":[{"name":"investor","type":"address","internalType":"address"},{"name":"yearMonth","type":"uint256","internalType":"uint256"}],"outputs":[{"name":"monthlyAcquired","type":"uint256","internalType":"uint256"}],"stateMutability":"view"},{"type":"function","name":"getInvestorStats","inputs":[{"name":"investor","type":"address","internalType":"address"}],"outputs":[{"name":"totalAcquired","type":"uint256","internalType":"uint256"},{"name":"currentHeld","type":"uint256","internalType":"uint256"}],"stateMutability":"view"},{"type":"function","name":"getNFTOwnersWithBalance","inputs":[{"name":"tokenId","type":"uint256","internalType":"uint256"}],"outputs":[{"name":"","type":"tuple[]","internalType":"struct MonthlyDataUploader.NFTOwner[]","components":[{"name":"owner","type":"address","internalType":"address"},{"name":"balance","type":"uint256","internalType":"uint256"}]}],"stateMutability":"view"},{"type":"function","name":"getTokenOwners","inputs":[{"name":"tokenId","type":"uint256","internalType":"uint256"}],"outputs":[{"name":"","type":"address[]","internalType":"address[]"}],"stateMutability":"view"},{"type":"function","name":"investorMonthlyAcquired","inputs":[{"name":"","type":"address","internalType":"address"},{"name":"","type":"uint256","internalType":"uint256"}],"outputs":[{"name":"","type":"uint256","internalType":"uint256"}],"stateMutability":"view"},{"type":"function","name":"investorTotalAcquired","inputs":[{"name":"","type":"address","internalType":"address"}],"outputs":[{"name":"","type":"uint256","internalType":"uint256"}],"stateMutability":"view"},{"type":"function","name":"investors","inputs":[{"name":"","type":"uint256","internalType":"uint256"}],"outputs":[{"name":"","type":"address","internalType":"address"}],"stateMutability":"view"},{"type":"function","name":"isCreator","inputs":[{"name":"","type":"address","internalType":"address"}],"outputs":[{"name":"","type":"bool","internalType":"bool"}],"stateMutability":"view"},{"type":"function","name":"isInvestor","inputs":[{"name":"","type":"address","internalType":"address"}],"outputs":[{"name":"","type":"bool","internalType":"bool"}],"stateMutability":"view"},{"type":"function","name":"mangaNFTContract","inputs":[],"outputs":[{"name":"","type":"address","internalType":"contract IERC1155"}],"stateMutability":"view"},{"type":"function","name":"monthlyCreatorData","inputs":[{"name":"","type":"uint256","internalType":"uint256"},{"name":"","type":"uint256","internalType":"uint256"}],"outputs":[{"name":"creator","type":"address","internalType":"address"},{"name":"monthlyPublished","type":"uint256","internalType":"uint256"},{"name":"totalPublished","type":"uint256","internalType":"uint256"},{"name":"monthlyAcquired","type":"uint256","internalType":"uint256"},{"name":"currentHeld","type":"uint256","internalType":"uint256"},{"name":"timestamp","type":"uint256","internalType":"uint256"}],"stateMutability":"view"},{"type":"function","name":"monthlyInvestorData","inputs":[{"name":"","type":"uint256","internalType":"uint256"},{"name":"","type":"uint256","internalType":"uint256"}],"outputs":[{"name":"investor","type":"address","internalType":"address"},{"name":"monthlyAcquired","type":"uint256","internalType":"uint256"},{"name":"totalAcquired","type":"uint256","internalType":"uint256"},{"name":"currentHeld","type":"uint256","internalType":"uint256"},{"name":"timestamp","type":"uint256","internalType":"uint256"}],"stateMutability":"view"},{"type":"function","name":"owner","inputs":[],"outputs":[{"name":"","type":"address","internalType":"address"}],"stateMutability":"view"},{"type":"function","name":"platformAddress","inputs":[],"outputs":[{"name":"","type":"address","internalType":"address"}],"stateMutability":"view"},{"type":"function","name":"recordCreatorPublish","inputs":[{"name":"creator","type":"address","internalType":"address"},{"name":"publishedCount","type":"uint256","internalType":"uint256"},{"name":"acquiredCount","type":"uint256","internalType":"uint256"}],"outputs":[],"stateMutability":"nonpayable"},{"type":"function","name":"recordInvestorAcquire","inputs":[{"name":"investor","type":"address","internalType":"address"},{"name":"acquiredCount","type":"uint256","internalType":"uint256"}],"outputs":[],"stateMutability":"nonpayable"},{"type":"function","name":"removeCreator","inputs":[{"name":"creator","type":"address","internalType":"address"}],"outputs":[],"stateMutability":"nonpayable"},{"type":"function","name":"removeInvestor","inputs":[{"name":"investor","type":"address","internalType":"address"}],"outputs":[],"stateMutability":"nonpayable"},{"type":"function","name":"renounceOwnership","inputs":[],"outputs":[],"stateMutability":"nonpayable"},{"type":"function","name":"transferOwnership","inputs":[{"name":"newOwner","type":"address","internalType":"address"}],"outputs":[],"stateMutability":"nonpayable"},{"type":"function","name":"updateMangaNFTContract","inputs":[{"name":"newMangaNFTContract","type":"address","internalType":"address"}],"outputs":[],"stateMutability":"nonpayable"},{"type":"function","name":"updateOwnership","inputs":[{"name":"tokenId","type":"uint256","internalType":"uint256"},{"name":"owner","type":"address","internalType":"address"}],"outputs":[],"stateMutability":"nonpayable"},{"type":"function","name":"updatePlatformAddress","inputs":[{"name":"newPlatformAddress","type":"address","internalType":"address"}],"outputs":[],"stateMutability":"nonpayable"},{"type":"function","name":"uploadDataForMonth","inputs":[{"name":"yearMonth","type":"uint256","internalType":"uint256"}],"outputs":[],"stateMutability":"nonpayable"},{"type":"function","name":"uploadMonthlyData","inputs":[],"outputs":[],"stateMutability":"nonpayable"},{"type":"event","name":"CreatorDataUploaded","inputs":[{"name":"yearMonth","type":"uint256","indexed":true,"internalType":"uint256"},{"name":"creator","type":"address","indexed":true,"internalType":"address"},{"name":"monthlyPublished","type":"uint256","indexed":false,"internalType":"uint256"},{"name":"totalPublished","type":"uint256","indexed":false,"internalType":"uint256"},{"name":"monthlyAcquired","type":"uint256","indexed":false,"internalType":"uint256"},{"name":"currentHeld","type":"uint256","indexed":false,"internalType":"uint256"}],"anonymous":false},{"type":"event","name":"CreatorNFTPublished","inputs":[{"name":"creator","type":"address","indexed":true,"internalType":"address"},{"name":"publishedCount","type":"uint256","indexed":false,"internalType":"uint256"},{"name":"totalPublished","type":"uint256","indexed":false,"internalType":"uint256"},{"name":"acquiredCount","type":"uint256","indexed":false,"internalType":"uint256"}],"anonymous":false},{"type":"event","name":"InvestorDataUploaded","inputs":[{"name":"yearMonth","type":"uint256","indexed":true,"internalType":"uint256"},{"name":"investor","type":"address","indexed":true,"internalType":"address"},{"name":"monthlyAcquired","type":"uint256","indexed":false,"internalType":"uint256"},{"name":"totalAcquired","type":"uint256","indexed":false,"internalType":"uint256"},{"name":"currentHeld","type":"uint256","indexed":false,"internalType":"uint256"}],"anonymous":false},{"type":"event","name":"InvestorNFTAcquired","inputs":[{"name":"investor","type":"address","indexed":true,"internalType":"address"},{"name":"acquiredCount","type":"uint256","indexed":false,"internalType":"uint256"},{"name":"totalAcquired","type":"uint256","indexed":false,"internalType":"uint256"}],"anonymous":false},{"type":"event","name":"MonthlyDataUploaded","inputs":[{"name":"yearMonth","type":"uint256","indexed":true,"internalType":"uint256"},{"name":"creatorCount","type":"uint256","indexed":false,"internalType":"uint256"},{"name":"investorCount","type":"uint256","indexed":false,"internalType":"uint256"}],"anonymous":false},{"type":"event","name":"OwnershipTransferred","inputs":[{"name":"previousOwner","type":"address","indexed":true,"internalType":"address"},{"name":"newOwner","type":"address","indexed":true,"internalType":"address"}],"anonymous":false},{"type":"error","name":"OwnableInvalidOwner","inputs":[{"name":"owner","type":"address","internalType":"address"}]},{"type":"error","name":"OwnableUnauthorizedAccount","inputs":[{"name":"account","type":"address","internalType":"address"}]}],"bytecode":{"object":"0x608034620001935762002c8a90601f38839003908101601f19168201906001600160401b0382118383101762000197578083916040958694855283398101031262000193576200005d60206200005583620001ab565b9201620001ab565b9033156200017c575f5460018060a01b038060018060a01b03199333858516175f55865193823391167f8be0079c531659141344cd1fd0a4f28419497f9722a3daafe3b4186f6b6457e05f80a3169182156200013a575083169283620000de575b50816001541617600155600254161760025551612ac99081620001c18239f35b3b15620000ec575f620000be565b835162461bcd60e51b815260206004820152602160248201527f496e76616c6964204d616e67614e465420436f6e7472616374204164647265736044820152607360f81b6064820152608490fd5b62461bcd60e51b815260206004820152601860248201527f496e76616c696420506c6174666f726d204164647265737300000000000000006044820152606490fd5b8251631e4fbdf760e01b81525f6004820152602490fd5b5f80fd5b634e487b7160e01b5f52604160045260245ffd5b51906001600160a01b0382168203620001935756fe604060808152600480361015610013575f80fd5b5f3560e01c90816310fdf36a14611cb257816315f87f9314611c725781631bc03e0814611c52578163277b7d4314611b785781632782a49014611b2e5781632ba06d0714611aca5781632e7e8cbe14611aa557816336cb8a5e146119c65781633b9dce05146119645781633feb5f2b1461193a578163427149781461182357816345e69023146117ec57816348923609146117a25781635722fdfa14611786578163598faf61146117195781635fdcc9df14611685578163681ece9d146116135781636959449f146114825781636e00fe4d14611377578163715018a614611320578163715477981461121c5781637d4fbb25146111f45781637e628d68146110005781637f9803b314610eac5781638da5cb5b14610e855781638f9f193f14610dfb57816394b49f4014610d4b5781639f82d47214610cea578163a05d201414610caa578163ad2809de14610b0a578163b2b22d381461047e578163b637ce3714610ade578163b775960f14610a82578163bd6018bb1461092d578163beca1517146108c7578163cc0266f7146107f3578163cd53d08e146107b3578163cee2a9cf14610777578163cfe4a3cc14610740578163d0274e34146106c2578163d0a2f2c414610641578163d4cc9d381461060a578163dab808bd1461054f578163dbe55e5614610527578163e4d8cbff146104be578163e632e93d1461047e578163e641bde11461041a578163efd46065146103de578163f2483d9d14610368578163f2fde38b146102e0575063f97fac4d1461024e575f80fd5b346102dc575f3660031901126102dc578051600d80548083525f918252602080840194927fd7b6990105719101dabeb77144f2a3385c8033acd3af97e9423a695e81ad1eb592915b8282106102bc576102b886866102ae828b03836121b9565b5191829182611dd3565b0390f35b83546001600160a01b031687529586019560019384019390910190610296565b5f80fd5b9050346102dc5760203660031901126102dc576102fb611cf9565b906103046126a3565b6001600160a01b039182169283156103525750505f54826001600160601b0360a01b8216175f55167f8be0079c531659141344cd1fd0a4f28419497f9722a3daafe3b4186f6b6457e05f80a3005b905f6024925191631e4fbdf760e01b8352820152fd5b9050346102dc5761037836611f00565b92905f526003602052805f2080548410156102dc5760c09361039991611f2f565b5060018060a01b0381541692600182015492600283015490600560038501549385015494015494815196875260208701528501526060840152608083015260a0820152f35b82346102dc5760203660031901126102dc576020906001600160a01b03610403611cf9565b165f52600b825260ff815f20541690519015158152f35b82346102dc5760203660031901126102dc57610434611cf9565b9061043d6126a3565b6001600160a01b0382166104528115156123e9565b5f52600c6020525f209081549160ff83161561046a57005b600161047c9360ff1916179055611fbc565b005b82346102dc57806003193601126102dc576020906001600160a01b036104a2611cf9565b165f52600a8252805f206024355f528252805f20549051908152f35b9050346102dc576104ce36611f00565b92905f5281602052805f2080548410156102dc5760a0936104ee91611f16565b50600180851b03815416926001820154926002830154916003840154930154938151958652602086015284015260608301526080820152f35b82346102dc575f3660031901126102dc5760015490516001600160a01b039091168152602090f35b82346102dc57602090816003193601126102dc5782355f526003808352815f2080549161057b836121db565b95610588855197886121b9565b8387525f92835285832091868089015b8686106105b1578751828152806102b88185018d611e87565b60019160069189516105c28161219d565b848060a01b038854168152848801548382015260028801548b820152858801546060820152868801546080820152600588015460a08201528152019401940193928790610598565b82346102dc5760203660031901126102dc576020906001600160a01b0361062f611cf9565b165f5260098252805f20549051908152f35b82346102dc575f3660031901126102dc578051600e80548083525f918252602080840194927fbb7b4a454dc3493923482f07822329ed19e8244eff582cc204f8554c3620c3fd92915b8282106106a2576102b886866102ae828b03836121b9565b83546001600160a01b03168752958601956001938401939091019061068a565b9050346102dc575f3660031901126102dc576106dc6126a3565b601c601e62015180420406106106f45761047c611f48565b6020608492519162461bcd60e51b8352820152602160248201527f43616e206f6e6c792075706c6f6164206e65617220656e64206f66206d6f6e746044820152600d60fb1b6064820152fd5b82346102dc5760203660031901126102dc576020906001600160a01b03610765611cf9565b165f5260068252805f20549051908152f35b82346102dc5760203660031901126102dc576020906001600160a01b0361079c611cf9565b165f52600c825260ff815f20541690519015158152f35b9050346102dc5760203660031901126102dc573590600d548210156102dc576107dd602092611d89565b905491519160018060a01b039160031b1c168152f35b82346102dc57806003193601126102dc576024359082356001600160a01b03808416908185036102dc5761082c90600254163314612018565b815f526011602052825f20815f5260205260ff835f2054161561084b57005b815f526011602052825f20905f52602052815f20600160ff198254161790555f5260106020525f20805492600160401b8410156108b457508261089691600161047c95018155611dbe565b90919060018060a01b038084549260031b9316831b921b1916179055565b604190634e487b7160e01b5f525260245ffd5b82346102dc57806003193601126102dc5760a09061092b6108f26108e9611cf9565b60243590612435565b915180926080809160018060a01b0381511684526020810151602085015260408101516040850152606081015160608501520151910152565bf35b9050346102dc5760203660031901126102dc57610948611cf9565b916109516126a3565b6001600160a01b039283165f818152600b6020528290205490919060ff1615610a4057815f52600b6020525f2060ff1981541690555f5b600d80548083101561047c57858461099f85611d89565b929054600393841b1c16146109b957505050600101610988565b91955f199594509190858101908111610a2d5791610896916109de6109ea9594611d89565b9054911b1c1691611d89565b8254908115610a1a57500190610a17610a0283611d89565b81549060018060a01b039060031b1b19169055565b55005b603190634e487b7160e01b5f525260245ffd5b601185634e487b7160e01b5f525260245ffd5b5162461bcd60e51b8152602081840152601860248201527f41646472657373206973206e6f7420612063726561746f7200000000000000006044820152606490fd5b82346102dc57806003193601126102dc57610a9b611cf9565b6001600160a01b03165f81815260076020908152838220602435808452908252848320549383526008825284832090835281529083902054835192835290820152f35b82346102dc5760203660031901126102dc57602090610b03610afe611cf9565b612582565b9051908152f35b9050346102dc57602090816003193601126102dc57803567ffffffffffffffff81116102dc5791610b3f849336908401611d0f565b9190610b4a836121db565b93610b57865195866121b9565b838552610b63846121db565b93610b7584870195601f190186612376565b5f5b818110610bd957505050508351928184019082855251809152848401948160051b85010192915f955b828710610bad5785850386f35b909192938280610bc9600193603f198a82030186528851611e87565b9601920196019592919092610ba0565b610be7818386999799611f98565b355f526003808852885f208054908a610bff836121db565b93610c0c825195866121b9565b8385528b8501925f528b805f20935f935b868510610c4e575050505050505090600191610c3982886121f3565b52610c4481876121f3565b5001959395610b77565b91600691836001945190610c618261219d565b858060a01b03895416825285890154848301526002890154908201528588015460608201528c8801546080820152600588015460a08201528152019401920191928c908e610c1d565b82346102dc57806003193601126102dc576020906001600160a01b03610cce611cf9565b165f5260078252805f206024355f528252805f20549051908152f35b82346102dc5760203660031901126102dc57610d04611cf9565b9060018060a01b0382165f5260056020526102b8815f2054916006602052610d2f815f2054946129b5565b9051938493846040919493926060820195825260208201520152565b82346102dc57602090816003193601126102dc5782355f52828252805f20805490610d75826121db565b94610d82845196876121b9565b8286525f91825284822090858088015b858510610dab578651828152806102b88185018c611e17565b6001916005918851610dbc81612165565b848060a01b038754168152848701548382015260028701548a820152600387015460608201528587015460808201528152019301930192918690610d92565b9050346102dc5760203660031901126102dc57610e16611cf9565b610e1e6126a3565b6001600160a01b0316918215610e4257600180546001600160a01b03191684179055005b906020606492519162461bcd60e51b8352820152601860248201527f496e76616c696420706c6174666f726d206164647265737300000000000000006044820152fd5b82346102dc575f3660031901126102dc575f5490516001600160a01b039091168152602090f35b82346102dc5760603660031901126102dc577f64ba448e7fcd73a53f46015728c9d8544608e070b2b61aacb8e451a85aa279db610ee7611cf9565b91602435610fd4604435600560018060a01b03806001541633148015610ff3575b610f1190612392565b871696610f1f881515612091565b875f52602090600b8252865f209081549160ff831615610fd9575b505050610f456120fe565b885f5260078252865f20815f528252865f20610f628782546120dd565b9055885f52828252865f20610f788782546120dd565b9055885f5260088252865f20905f528152855f20610f978482546120dd565b9055875f5260068152855f20610fae8482546120dd565b9055875f5252835f20549351938493846040919493926060820195825260208201520152565b0390a2005b6001610feb9360ff1916179055611ff5565b888080610f3a565b5060025481163314610f08565b9050346102dc57602091826003193601126102dc57813592835f5260108152815f209180518084848296549384815201905f52845f20925f5b868282106111d557505050611050925003846121b9565b82519461107461105f876121db565b9661106c845198896121b9565b8088526121db565b601f1901835f5b8281106111b45750506002546001600160a01b039690871691505f5b86518110156111695780886110af6110ed938a6121f3565b511687868b6110be858d6121f3565b511689519586928392627eeac760e11b845289840160209093929193604081019460018060a01b031681520152565b0381885afa801561115f575f90611131575b6001935087519161110f83612181565b82528882015261111f828c6121f3565b5261112a818b6121f3565b5001611097565b508783813d8311611158575b61114781836121b9565b810103126102dc57600192516110ff565b503d61113d565b87513d5f823e3d90fd5b84518681528951818801819052899190818801908c8a01908a5f8b5b8382106111925786860387f35b8451805189168752830151868401529485019493820193600190910190611185565b84516111bf81612181565b5f81525f8382015282828b01015201849061107b565b85546001600160a01b0316845260019586019589955093019201611039565b82346102dc575f3660031901126102dc5760025490516001600160a01b039091168152602090f35b82346102dc57806003193601126102dc577f0f0d6280104c411a65d2ae644cde097231ceda76f1147113b63beeb23ebecdcc611256611cf9565b9160243560018060a01b03806001541633148015611313575b61127890612392565b8416936112868515156123e9565b845f52602090600c8252835f209081549160ff8316156112f9575b5050506112ac6120fe565b855f52600a8252835f20905f528152825f206112c98382546120dd565b9055845f5260098152825f206112e08382546120dd565b9055845f5260098152825f2054908351928352820152a2005b600161130b9360ff1916179055611fbc565b8580806112a1565b506002548116331461126f565b346102dc575f3660031901126102dc576113386126a3565b5f80546001600160a01b0319811682556001600160a01b03167f8be0079c531659141344cd1fd0a4f28419497f9722a3daafe3b4186f6b6457e08280a3005b9050346102dc5760203660031901126102dc578035916113956126a3565b825f526003926003602052815f2080545f82558061141f575b50505f52816020525f20918254915f8455826113c657005b6005938360050293600585040361140c575f5260205f20928301925b8381106113eb57005b805f8692555f60018201555f60028201555f848201555f83820155016113e2565b601182634e487b7160e01b5f525260245ffd5b6006918160060291600683040361146f575f5260205f20908101905b81811061144857506113ae565b805f8492555f60018201555f60028201555f888201555f878201555f60058201550161143b565b601186634e487b7160e01b5f525260245ffd5b9050346102dc57602090816003193601126102dc57803567ffffffffffffffff81116102dc57916114b7849336908401611d0f565b91906114c2836121db565b936114cf865195866121b9565b8385526114db846121db565b936114ed84870195601f190186612376565b5f5b81811061155157505050508351928184019082855251809152848401948160051b85010192915f955b8287106115255785850386f35b909192938280611541600193603f198a82030186528851611e17565b9601920196019592919092611518565b61155f818386999799611f98565b355f52828752875f208054611573816121db565b916115808b5193846121b9565b8183525f908152898120908a8085015b8d8584106115c157505050505050906001916115ac82886121f3565b526115b781876121f3565b50019593956114ef565b916005918360019451906115d482612165565b858060a01b0388541682528588015484830152600288015490820152600387015460608201528b87015460808201528152019301910190918b90611590565b9050346102dc5760209060206003193601126102dc57355f526010602052815f209180519182602085549182815201945f5260205f20915f905b828210611665576102b886866102ae828b03836121b9565b83546001600160a01b03168752958601956001938401939091019061164d565b9050346102dc5760203660031901126102dc576116a0611cf9565b6116a86126a3565b6001600160a01b03169182156116cc57600280546001600160a01b03191684179055005b906020608492519162461bcd60e51b8352820152602160248201527f496e76616c6964204d616e67614e465420636f6e7472616374206164647265736044820152607360f81b6064820152fd5b82346102dc57806003193601126102dc5760c09061092b61174461173b611cf9565b60243590612207565b9151809260a08091600180831b038151168452602081015160208501526040810151604085015260608101516060850152608081015160808501520151910152565b82346102dc575f3660031901126102dc57602090610b036120fe565b82346102dc57806003193601126102dc5761047c906117bf611cf9565b6002546001600160a01b0391906117d99083163314612018565b165f526012602052602435905f2061205d565b82346102dc5760203660031901126102dc576020906001600160a01b03611811611cf9565b165f5260058252805f20549051908152f35b9050346102dc5760203660031901126102dc5761183e611cf9565b916118476126a3565b6001600160a01b039283165f818152600c6020528290205490919060ff16156118f857815f52600c6020525f2060ff1981541690555f5b600e80548083101561047c57858461189585611d40565b929054600393841b1c16146118af5750505060010161187e565b91955f199594509190858101908111610a2d5791610896916118d46118e09594611d40565b9054911b1c1691611d40565b8254908115610a1a57500190610a17610a0283611d40565b5162461bcd60e51b8152602081840152601a60248201527f41646472657373206973206e6f7420616e20696e766573746f720000000000006044820152606490fd5b9050346102dc5760203660031901126102dc573590600e548210156102dc576107dd602092611d40565b82346102dc5760203660031901126102dc5761197e611cf9565b906119876126a3565b6001600160a01b03821661199c811515612091565b5f52600b6020525f209081549160ff8316156119b457005b600161047c9360ff1916179055611ff5565b9050346102dc5760209060206003193601126102dc5780359067ffffffffffffffff82116102dc576119fa91369101611d0f565b9290611a046126a3565b5f5b848110611a0f57005b6001906001600160a01b0380611a2e611a29848a88611f98565b611fa8565b16151580611a81575b611a43575b5001611a06565b611a51611a29838987611f98565b165f52600b8552835f208260ff19825416179055611a7b611a76611a29838987611f98565b611ff5565b5f611a3c565b5080611a91611a29848a88611f98565b165f52600b865260ff855f20541615611a37565b82346102dc5760203660031901126102dc57602090610b03611ac5611cf9565b6129b5565b9050346102dc5760203660031901126102dc577f334d0da38f50326dbf797918bad680d8b3320b5c9e1d3fc8068f8b0215819496903591611b096126a3565b611b12836126ce565b611b1b83612858565b600d54600e5482519182526020820152a2005b82346102dc57806003193601126102dc5761047c90611b4b611cf9565b6002546001600160a01b039190611b659083163314612018565b165f52600f602052602435905f2061205d565b9050346102dc5760209060206003193601126102dc5780359067ffffffffffffffff82116102dc57611bac91369101611d0f565b9290611bb66126a3565b5f5b848110611bc157005b6001906001600160a01b0380611bdb611a29848a88611f98565b16151580611c2e575b611bf0575b5001611bb8565b611bfe611a29838987611f98565b165f52600c8552835f208260ff19825416179055611c28611c23611a29838987611f98565b611fbc565b5f611be9565b5080611c3e611a29848a88611f98565b165f52600c865260ff855f20541615611be4565b346102dc575f3660031901126102dc57611c6a6126a3565b61047c611f48565b82346102dc57806003193601126102dc576020906001600160a01b03611c96611cf9565b165f5260088252805f206024355f528252805f20549051908152f35b82346102dc5760203660031901126102dc57611ccc611cf9565b6001600160a01b0381165f90815260096020528290205490611ced90612582565b82519182526020820152f35b600435906001600160a01b03821682036102dc57565b9181601f840112156102dc5782359167ffffffffffffffff83116102dc576020808501948460051b0101116102dc57565b600e54811015611d7557600e5f527fbb7b4a454dc3493923482f07822329ed19e8244eff582cc204f8554c3620c3fd01905f90565b634e487b7160e01b5f52603260045260245ffd5b600d54811015611d7557600d5f527fd7b6990105719101dabeb77144f2a3385c8033acd3af97e9423a695e81ad1eb501905f90565b8054821015611d75575f5260205f2001905f90565b60209060206040818301928281528551809452019301915f5b828110611dfa575050505090565b83516001600160a01b031685529381019392810192600101611dec565b9081518082526020808093019301915f5b828110611e36575050505090565b909192938260a082611e7b60019489516080809160018060a01b0381511684526020810151602085015260408101516040850152606081015160608501520151910152565b01950193929101611e28565b9081518082526020808093019301915f5b828110611ea6575050505090565b909192938260c082611ef4600194895160a08091600180831b038151168452602081015160208501526040810151604085015260608101516060850152608081015160808501520151910152565b01950193929101611e98565b60409060031901126102dc576004359060243590565b8054821015611d75575f52600560205f20910201905f90565b8054821015611d75575f52600660205f20910201905f90565b611f506120fe565b611f59816126ce565b611f6281612858565b7f334d0da38f50326dbf797918bad680d8b3320b5c9e1d3fc8068f8b02158194966040600d54600e5482519182526020820152a2565b9190811015611d755760051b0190565b356001600160a01b03811681036102dc5790565b600e5490600160401b821015611fe157610896826001611fdf9401600e55611d40565b565b634e487b7160e01b5f52604160045260245ffd5b600d5490600160401b821015611fe157610896826001611fdf9401600d55611d89565b1561201f57565b60405162461bcd60e51b815260206004820152601660248201527513db9b1e4813585b99d85391950818d85b8818d85b1b60521b6044820152606490fd5b8054600160401b811015611fe15761207a91600182018155611dbe565b819291549060031b91821b915f19901b1916179055565b1561209857565b60405162461bcd60e51b815260206004820152601760248201527f496e76616c69642063726561746f7220616464726573730000000000000000006044820152606490fd5b919082018092116120ea57565b634e487b7160e01b5f52601160045260245ffd5b636592007f1942014281116120ea576301e13380906107e89180820483018093116120ea5762278d00910604600181018091116120ea57600c811161215d575b6064820291808304606414901517156120ea5761215a916120dd565b90565b50600c61213e565b60a0810190811067ffffffffffffffff821117611fe157604052565b6040810190811067ffffffffffffffff821117611fe157604052565b60c0810190811067ffffffffffffffff821117611fe157604052565b90601f8019910116810190811067ffffffffffffffff821117611fe157604052565b67ffffffffffffffff8111611fe15760051b60200190565b8051821015611d755760209160051b010190565b906040918251916122178361219d565b5f83526020905f828501525f858501526060935f60608201526080915f60808301525f60a0809301525f526003808452865f2091825493612257856121db565b976122648a51998a6121b9565b8589525f94855286852093878a015b8b8989891061232057505050505050505050505f5b83518110156122c9576001600160a01b03806122a483876121f3565b515116908416146122b757600101612288565b929150506122c592506121f3565b5190565b845162461bcd60e51b815260048101839052602a60248201527f43726561746f722064617461206e6f7420666f756e6420666f722073706563696044820152690ccd2cac840dadedce8d60b31b6064820152608490fd5b6001928260069351906123328261219d565b858060a01b038b54168252858b01548483015260028b015490820152858a01548782015260048a01548882015260058a015489820152815201960196019594612273565b5f5b82811061238457505050565b606082820152602001612378565b1561239957565b60405162461bcd60e51b815260206004820152602260248201527f4f6e6c7920706c6174666f726d206f72204d616e67614e46542063616e2063616044820152611b1b60f21b6064820152608490fd5b156123f057565b60405162461bcd60e51b815260206004820152601860248201527f496e76616c696420696e766573746f72206164647265737300000000000000006044820152606490fd5b90604091825161244481612165565b5f81526020905f828201525f858201526060935f60608301525f6080809301525f5260049360048352855f209081549261247d846121db565b9661248a895198896121b9565b8488525f9384528584209286808a015b8787106125325750505050505050505f5b83518110156124da576001600160a01b03806124c783876121f3565b515116908416146122b7576001016124ab565b845162461bcd60e51b815260048101839052602b60248201527f496e766573746f722064617461206e6f7420666f756e6420666f72207370656360448201526a0d2ccd2cac840dadedce8d60ab1b6064820152608490fd5b6001916005918d80519061254582612165565b858060a01b038a54168252858a01548483015260028a0154908201526003890154868201528689015488820152815201950195019493879061249a565b905f60018060a01b038084165f5260206012815260409160405f2060405190818482549182815201915f52845f20905f5b81811061268f57505050816125c99103826121b9565b5f9160025416915b815181101561268557612617846125e883856121f3565b518751627eeac760e11b81526001600160a01b038c166004820152602481019190915291829081906044820190565b0381875afa90811561267b575f9161264e575b508061263a575b506001016125d1565b61264790600192976120dd565b9590612631565b90508481813d8311612674575b61266581836121b9565b810103126102dc57515f61262a565b503d61265b565b86513d5f823e3d90fd5b5093955050505050565b8254845292860192600192830192016125b3565b5f546001600160a01b031633036126b657565b60405163118cdaa760e01b8152336004820152602490fd5b905f5b600d54811015612853576126e481611d89565b9054600382901b81901c6001600160a01b03165f8181526007602090815260408083208984528252808320548484526005835281842054600884528285208b865290935292205495949193909261273a906129b5565b91604051916127488361219d565b60018060a01b03818360031b1c1683528560208401528460408401528760608401528360808401524260a0840152895f52600360205260405f208054600160401b811015611fe15761279f91600182018155611f2f565b949094612840576001988b967f6409082d590dc01fa5129d827b91f097c4ec0af9ab29dc69c98b197399bca60496600560a06080988e80831b038151166001600160601b03831b85541617845560208101518f85015560408101516002850155606081015160038501558981015160048501550151910155604051988952602089015260408801526060870152878060a01b039160031b1c1693a3016126d1565b634e487b7160e01b5f525f60045260245ffd5b509050565b905f5b600e548110156128535761286e81611d40565b9054600382901b81901c6001600160a01b03165f818152600a602090815260408083208984528252808320548484526009835292205495949193929091906128b590612582565b92604051926128c384612165565b60018060a01b03828460031b1c1684528581850152876040850152846060850152426080850152895f526004815260405f208054600160401b811015611fe15761291291600182018155611f16565b959095612840576001988b96600460807fad8acfcb1927b0df6347a0977bacff110eeafbc2d71ad546101d13db8541c16b986129ac968e8060a01b038251166001600160601b0360a01b8654161785558101518e850155604081015160028501556060810151600385015501519101556040519485948b8060a01b039160031b1c1697846040919493926060820195825260208201520152565b0390a30161285b565b905f60018060a01b038084165f526020600f815260409160405f2060405190818482549182815201915f52845f20905f5b818110612a7f57505050816129fc9103826121b9565b5f9160025416915b815181101561268557612a1b846125e883856121f3565b0381875afa90811561267b575f91612a52575b5080612a3e575b50600101612a04565b612a4b90600192976120dd565b9590612a35565b90508481813d8311612a78575b612a6981836121b9565b810103126102dc57515f612a2e565b503d612a5f565b8254845292860192600192830192016129e656fea26469706673582212200d94fa9ddf510664392305c8f501e7adb4d59522d9d0a4d99e3a5e33f4e3d18164736f6c63430008180033","linkReferences":{}},"methodIdentifiers":{"addCreator(address)":"3b9dce05","addCreatorChapter(address,uint256)":"2782a490","addCreators(address[])":"36cb8a5e","addInvestor(address)":"e641bde1","addInvestorHeld(address,uint256)":"48923609","addInvestors(address[])":"277b7d43","clearMonthlyData(uint256)":"6e00fe4d","creatorMonthlyAcquired(address,uint256)":"15f87f93","creatorMonthlyPublished(address,uint256)":"a05d2014","creatorTotalAcquired(address)":"cfe4a3cc","creatorTotalPublished(address)":"45e69023","creators(uint256)":"cd53d08e","forceUploadMonthlyData()":"1bc03e08","getAllCreators()":"f97fac4d","getAllInvestors()":"d0a2f2c4","getCreatorDataByMonth(uint256)":"dab808bd","getCreatorDataByMonths(uint256[])":"ad2809de","getCreatorMonthlyData(address,uint256)":"598faf61","getCreatorMonthlyStats(address,uint256)":"b775960f","getCreatorStats(address)":"9f82d472","getCurrentHeldNFTCountByCreatorExternal(address)":"2e7e8cbe","getCurrentHeldNFTCountByInvestorExternal(address)":"b637ce37","getCurrentYearMonth()":"5722fdfa","getInvestorDataByMonth(uint256)":"94b49f40","getInvestorDataByMonths(uint256[])":"6959449f","getInvestorMonthlyData(address,uint256)":"beca1517","getInvestorMonthlyStats(address,uint256)":"e632e93d","getInvestorStats(address)":"10fdf36a","getNFTOwnersWithBalance(uint256)":"7e628d68","getTokenOwners(uint256)":"681ece9d","investorMonthlyAcquired(address,uint256)":"b2b22d38","investorTotalAcquired(address)":"d4cc9d38","investors(uint256)":"3feb5f2b","isCreator(address)":"efd46065","isInvestor(address)":"cee2a9cf","mangaNFTContract()":"7d4fbb25","monthlyCreatorData(uint256,uint256)":"f2483d9d","monthlyInvestorData(uint256,uint256)":"e4d8cbff","owner()":"8da5cb5b","platformAddress()":"dbe55e56","recordCreatorPublish(address,uint256,uint256)":"7f9803b3","recordInvestorAcquire(address,uint256)":"71547798","removeCreator(address)":"bd6018bb","removeInvestor(address)":"42714978","renounceOwnership()":"715018a6","transferOwnership(address)":"f2fde38b","updateMangaNFTContract(address)":"5fdcc9df","updateOwnership(uint256,address)":"cc0266f7","updatePlatformAddress(address)":"8f9f193f","uploadDataForMonth(uint256)":"2ba06d07","uploadMonthlyData()":"d0274e34"},"id":36}